{
  "_format": "hh-sol-artifact-1",
  "contractName": "Paypal",
  "sourceName": "contracts/Paypal.sol",
  "abi": [
    {
      "inputs": [],
      "stateMutability": "nonpayable",
      "type": "constructor"
    },
    {
      "inputs": [
        {
          "internalType": "string",
          "name": "_name",
          "type": "string"
        }
      ],
      "name": "addName",
      "outputs": [],
      "stateMutability": "nonpayable",
      "type": "function"
    },
    {
      "inputs": [
        {
          "internalType": "address",
          "name": "user",
          "type": "address"
        },
        {
          "internalType": "uint256",
          "name": "_amount",
          "type": "uint256"
        },
        {
          "internalType": "string",
          "name": "_message",
          "type": "string"
        }
      ],
      "name": "createRequest",
      "outputs": [],
      "stateMutability": "nonpayable",
      "type": "function"
    },
    {
      "inputs": [
        {
          "internalType": "address",
          "name": "_user",
          "type": "address"
        }
      ],
      "name": "getMyHistory",
      "outputs": [
        {
          "components": [
            {
              "internalType": "string",
              "name": "action",
              "type": "string"
            },
            {
              "internalType": "uint256",
              "name": "amount",
              "type": "uint256"
            },
            {
              "internalType": "string",
              "name": "message",
              "type": "string"
            },
            {
              "internalType": "address",
              "name": "partyaddress",
              "type": "address"
            },
            {
              "internalType": "string",
              "name": "partyname",
              "type": "string"
            }
          ],
          "internalType": "struct Paypal.sendAndreceive[]",
          "name": "",
          "type": "tuple[]"
        }
      ],
      "stateMutability": "view",
      "type": "function"
    },
    {
      "inputs": [
        {
          "internalType": "address",
          "name": "_user",
          "type": "address"
        }
      ],
      "name": "getMyName",
      "outputs": [
        {
          "components": [
            {
              "internalType": "string",
              "name": "name",
              "type": "string"
            },
            {
              "internalType": "bool",
              "name": "hasName",
              "type": "bool"
            }
          ],
          "internalType": "struct Paypal.userName",
          "name": "",
          "type": "tuple"
        }
      ],
      "stateMutability": "view",
      "type": "function"
    },
    {
      "inputs": [
        {
          "internalType": "address",
          "name": "_user",
          "type": "address"
        }
      ],
      "name": "getMyRequests",
      "outputs": [
        {
          "internalType": "address[]",
          "name": "",
          "type": "address[]"
        },
        {
          "internalType": "uint256[]",
          "name": "",
          "type": "uint256[]"
        },
        {
          "internalType": "string[]",
          "name": "",
          "type": "string[]"
        },
        {
          "internalType": "string[]",
          "name": "",
          "type": "string[]"
        }
      ],
      "stateMutability": "view",
      "type": "function"
    },
    {
      "inputs": [
        {
          "internalType": "uint256",
          "name": "_request",
          "type": "uint256"
        }
      ],
      "name": "payRequest",
      "outputs": [],
      "stateMutability": "payable",
      "type": "function"
    }
  ],
  "bytecode": "0x608060405234801561001057600080fd5b50336000806101000a81548173ffffffffffffffffffffffffffffffffffffffff021916908373ffffffffffffffffffffffffffffffffffffffff160217905550611e61806100606000396000f3fe6080604052600436106100555760003560e01c806311456b471461005a578063169afbaa14610083578063347b1b83146100c0578063370068aa1461010057806363d4dd3b1461013d578063ba9a7a9e14610159575b600080fd5b34801561006657600080fd5b50610081600480360381019061007c91906111e1565b610182565b005b34801561008f57600080fd5b506100aa60048036038101906100a59190611288565b6101f8565b6040516100b7919061138c565b60405180910390f35b3480156100cc57600080fd5b506100e760048036038101906100e29190611288565b6102fe565b6040516100f794939291906115f6565b60405180910390f35b34801561010c57600080fd5b5061012760048036038101906101229190611288565b610812565b604051610134919061179d565b60405180910390f35b610157600480360381019061015291906117eb565b610ac6565b005b34801561016557600080fd5b50610180600480360381019061017b9190611818565b610d66565b005b6000600160003373ffffffffffffffffffffffffffffffffffffffff1673ffffffffffffffffffffffffffffffffffffffff1681526020019081526020016000209050818160000190816101d69190611a93565b5060018160010160006101000a81548160ff0219169083151502179055505050565b610200610fd0565b600160008373ffffffffffffffffffffffffffffffffffffffff1673ffffffffffffffffffffffffffffffffffffffff16815260200190815260200160002060405180604001604052908160008201805461025a906118b6565b80601f0160208091040260200160405190810160405280929190818152602001828054610286906118b6565b80156102d35780601f106102a8576101008083540402835291602001916102d3565b820191906000526020600020905b8154815290600101906020018083116102b657829003601f168201915b505050505081526020016001820160009054906101000a900460ff1615151515815250509050919050565b6060806060806000600260008773ffffffffffffffffffffffffffffffffffffffff1673ffffffffffffffffffffffffffffffffffffffff1681526020019081526020016000208054905067ffffffffffffffff811115610362576103616110b6565b5b6040519080825280602002602001820160405280156103905781602001602082028036833780820191505090505b5090506000600260008873ffffffffffffffffffffffffffffffffffffffff1673ffffffffffffffffffffffffffffffffffffffff1681526020019081526020016000208054905067ffffffffffffffff8111156103f1576103f06110b6565b5b60405190808252806020026020018201604052801561041f5781602001602082028036833780820191505090505b5090506000600260008973ffffffffffffffffffffffffffffffffffffffff1673ffffffffffffffffffffffffffffffffffffffff1681526020019081526020016000208054905067ffffffffffffffff8111156104805761047f6110b6565b5b6040519080825280602002602001820160405280156104b357816020015b606081526020019060019003908161049e5790505b5090506000600260008a73ffffffffffffffffffffffffffffffffffffffff1673ffffffffffffffffffffffffffffffffffffffff1681526020019081526020016000208054905067ffffffffffffffff811115610514576105136110b6565b5b60405190808252806020026020018201604052801561054757816020015b60608152602001906001900390816105325790505b50905060005b600260008b73ffffffffffffffffffffffffffffffffffffffff1673ffffffffffffffffffffffffffffffffffffffff168152602001908152602001600020805490508110156107fa576000600260008c73ffffffffffffffffffffffffffffffffffffffff1673ffffffffffffffffffffffffffffffffffffffff16815260200190815260200160002082815481106105ea576105e9611b65565b5b906000526020600020906004020190508060000160009054906101000a900473ffffffffffffffffffffffffffffffffffffffff1686838151811061063257610631611b65565b5b602002602001019073ffffffffffffffffffffffffffffffffffffffff16908173ffffffffffffffffffffffffffffffffffffffff1681525050806001015485838151811061068457610683611b65565b5b60200260200101818152505080600201805461069f906118b6565b80601f01602080910402602001604051908101604052809291908181526020018280546106cb906118b6565b80156107185780601f106106ed57610100808354040283529160200191610718565b820191906000526020600020905b8154815290600101906020018083116106fb57829003601f168201915b50505050508483815181106107305761072f611b65565b5b602002602001018190525080600301805461074a906118b6565b80601f0160208091040260200160405190810160405280929190818152602001828054610776906118b6565b80156107c35780601f10610798576101008083540402835291602001916107c3565b820191906000526020600020905b8154815290600101906020018083116107a657829003601f168201915b50505050508383815181106107db576107da611b65565b5b60200260200101819052505080806107f290611bc3565b91505061054d565b50838383839750975097509750505050509193509193565b6060600360008373ffffffffffffffffffffffffffffffffffffffff1673ffffffffffffffffffffffffffffffffffffffff168152602001908152602001600020805480602002602001604051908101604052809291908181526020016000905b82821015610abb57838290600052602060002090600502016040518060a00160405290816000820180546108a6906118b6565b80601f01602080910402602001604051908101604052809291908181526020018280546108d2906118b6565b801561091f5780601f106108f45761010080835404028352916020019161091f565b820191906000526020600020905b81548152906001019060200180831161090257829003601f168201915b5050505050815260200160018201548152602001600282018054610942906118b6565b80601f016020809104026020016040519081016040528092919081815260200182805461096e906118b6565b80156109bb5780601f10610990576101008083540402835291602001916109bb565b820191906000526020600020905b81548152906001019060200180831161099e57829003601f168201915b505050505081526020016003820160009054906101000a900473ffffffffffffffffffffffffffffffffffffffff1673ffffffffffffffffffffffffffffffffffffffff1673ffffffffffffffffffffffffffffffffffffffff168152602001600482018054610a2a906118b6565b80601f0160208091040260200160405190810160405280929190818152602001828054610a56906118b6565b8015610aa35780601f10610a7857610100808354040283529160200191610aa3565b820191906000526020600020905b815481529060010190602001808311610a8657829003601f168201915b50505050508152505081526020019060010190610873565b505050509050919050565b6000600260003373ffffffffffffffffffffffffffffffffffffffff1673ffffffffffffffffffffffffffffffffffffffff16815260200190815260200160002090506000818381548110610b1e57610b1d611b65565b5b906000526020600020906004020190506000670de0b6b3a76400008260010154610b489190611c0b565b9050803414610b8c576040517f08c379a0000000000000000000000000000000000000000000000000000000008152600401610b8390611caa565b60405180910390fd5b8160000160009054906101000a900473ffffffffffffffffffffffffffffffffffffffff1673ffffffffffffffffffffffffffffffffffffffff166108fc349081150290604051600060405180830381858888f19350505050158015610bf6573d6000803e3d6000fd5b508260018480549050610c099190611cca565b81548110610c1a57610c19611b65565b5b9060005260206000209060040201838581548110610c3b57610c3a611b65565b5b90600052602060002090600402016000820160009054906101000a900473ffffffffffffffffffffffffffffffffffffffff168160000160006101000a81548173ffffffffffffffffffffffffffffffffffffffff021916908373ffffffffffffffffffffffffffffffffffffffff1602179055506001820154816001015560028201816002019081610cce9190611d14565b5060038201816003019081610ce39190611d14565b5090505082805480610cf857610cf7611dfc565b5b6001900381819060005260206000209060040201600080820160006101000a81549073ffffffffffffffffffffffffffffffffffffffff02191690556001820160009055600282016000610d4c9190610fec565b600382016000610d5c9190610fec565b5050905550505050565b610d6e61102c565b33816000019073ffffffffffffffffffffffffffffffffffffffff16908173ffffffffffffffffffffffffffffffffffffffff168152505082816020018181525050818160400181905250600160003373ffffffffffffffffffffffffffffffffffffffff1673ffffffffffffffffffffffffffffffffffffffff16815260200190815260200160002060010160009054906101000a900460ff1615610ee257600160003373ffffffffffffffffffffffffffffffffffffffff1673ffffffffffffffffffffffffffffffffffffffff1681526020019081526020016000206000018054610e5b906118b6565b80601f0160208091040260200160405190810160405280929190818152602001828054610e87906118b6565b8015610ed45780601f10610ea957610100808354040283529160200191610ed4565b820191906000526020600020905b815481529060010190602001808311610eb757829003601f168201915b505050505081606001819052505b600260008573ffffffffffffffffffffffffffffffffffffffff1673ffffffffffffffffffffffffffffffffffffffff16815260200190815260200160002081908060018154018082558091505060019003906000526020600020906004020160009091909190915060008201518160000160006101000a81548173ffffffffffffffffffffffffffffffffffffffff021916908373ffffffffffffffffffffffffffffffffffffffff160217905550602082015181600101556040820151816002019081610fb19190611a93565b506060820151816003019081610fc79190611a93565b50505050505050565b6040518060400160405280606081526020016000151581525090565b508054610ff8906118b6565b6000825580601f1061100a5750611029565b601f016020900490600052602060002090810190611028919061106a565b5b50565b6040518060800160405280600073ffffffffffffffffffffffffffffffffffffffff1681526020016000815260200160608152602001606081525090565b5b8082111561108357600081600090555060010161106b565b5090565b6000604051905090565b600080fd5b600080fd5b600080fd5b600080fd5b6000601f19601f8301169050919050565b7f4e487b7100000000000000000000000000000000000000000000000000000000600052604160045260246000fd5b6110ee826110a5565b810181811067ffffffffffffffff8211171561110d5761110c6110b6565b5b80604052505050565b6000611120611087565b905061112c82826110e5565b919050565b600067ffffffffffffffff82111561114c5761114b6110b6565b5b611155826110a5565b9050602081019050919050565b82818337600083830152505050565b600061118461117f84611131565b611116565b9050828152602081018484840111156111a05761119f6110a0565b5b6111ab848285611162565b509392505050565b600082601f8301126111c8576111c761109b565b5b81356111d8848260208601611171565b91505092915050565b6000602082840312156111f7576111f6611091565b5b600082013567ffffffffffffffff81111561121557611214611096565b5b611221848285016111b3565b91505092915050565b600073ffffffffffffffffffffffffffffffffffffffff82169050919050565b60006112558261122a565b9050919050565b6112658161124a565b811461127057600080fd5b50565b6000813590506112828161125c565b92915050565b60006020828403121561129e5761129d611091565b5b60006112ac84828501611273565b91505092915050565b600081519050919050565b600082825260208201905092915050565b60005b838110156112ef5780820151818401526020810190506112d4565b60008484015250505050565b6000611306826112b5565b61131081856112c0565b93506113208185602086016112d1565b611329816110a5565b840191505092915050565b60008115159050919050565b61134981611334565b82525050565b6000604083016000830151848203600086015261136c82826112fb565b91505060208301516113816020860182611340565b508091505092915050565b600060208201905081810360008301526113a6818461134f565b905092915050565b600081519050919050565b600082825260208201905092915050565b6000819050602082019050919050565b6113e38161124a565b82525050565b60006113f583836113da565b60208301905092915050565b6000602082019050919050565b6000611419826113ae565b61142381856113b9565b935061142e836113ca565b8060005b8381101561145f57815161144688826113e9565b975061145183611401565b925050600181019050611432565b5085935050505092915050565b600081519050919050565b600082825260208201905092915050565b6000819050602082019050919050565b6000819050919050565b6114ab81611498565b82525050565b60006114bd83836114a2565b60208301905092915050565b6000602082019050919050565b60006114e18261146c565b6114eb8185611477565b93506114f683611488565b8060005b8381101561152757815161150e88826114b1565b9750611519836114c9565b9250506001810190506114fa565b5085935050505092915050565b600081519050919050565b600082825260208201905092915050565b6000819050602082019050919050565b600061156c83836112fb565b905092915050565b6000602082019050919050565b600061158c82611534565b611596818561153f565b9350836020820285016115a885611550565b8060005b858110156115e457848403895281516115c58582611560565b94506115d083611574565b925060208a019950506001810190506115ac565b50829750879550505050505092915050565b60006080820190508181036000830152611610818761140e565b9050818103602083015261162481866114d6565b905081810360408301526116388185611581565b9050818103606083015261164c8184611581565b905095945050505050565b600081519050919050565b600082825260208201905092915050565b6000819050602082019050919050565b600060a08301600083015184820360008601526116a082826112fb565b91505060208301516116b560208601826114a2565b50604083015184820360408601526116cd82826112fb565b91505060608301516116e260608601826113da565b50608083015184820360808601526116fa82826112fb565b9150508091505092915050565b60006117138383611683565b905092915050565b6000602082019050919050565b600061173382611657565b61173d8185611662565b93508360208202850161174f85611673565b8060005b8581101561178b578484038952815161176c8582611707565b94506117778361171b565b925060208a01995050600181019050611753565b50829750879550505050505092915050565b600060208201905081810360008301526117b78184611728565b905092915050565b6117c881611498565b81146117d357600080fd5b50565b6000813590506117e5816117bf565b92915050565b60006020828403121561180157611800611091565b5b600061180f848285016117d6565b91505092915050565b60008060006060848603121561183157611830611091565b5b600061183f86828701611273565b9350506020611850868287016117d6565b925050604084013567ffffffffffffffff81111561187157611870611096565b5b61187d868287016111b3565b9150509250925092565b7f4e487b7100000000000000000000000000000000000000000000000000000000600052602260045260246000fd5b600060028204905060018216806118ce57607f821691505b6020821081036118e1576118e0611887565b5b50919050565b60008190508160005260206000209050919050565b60006020601f8301049050919050565b600082821b905092915050565b6000600883026119497fffffffffffffffffffffffffffffffffffffffffffffffffffffffffffffffff8261190c565b611953868361190c565b95508019841693508086168417925050509392505050565b6000819050919050565b600061199061198b61198684611498565b61196b565b611498565b9050919050565b6000819050919050565b6119aa83611975565b6119be6119b682611997565b848454611919565b825550505050565b600090565b6119d36119c6565b6119de8184846119a1565b505050565b5b81811015611a02576119f76000826119cb565b6001810190506119e4565b5050565b601f821115611a4757611a18816118e7565b611a21846118fc565b81016020851015611a30578190505b611a44611a3c856118fc565b8301826119e3565b50505b505050565b600082821c905092915050565b6000611a6a60001984600802611a4c565b1980831691505092915050565b6000611a838383611a59565b9150826002028217905092915050565b611a9c826112b5565b67ffffffffffffffff811115611ab557611ab46110b6565b5b611abf82546118b6565b611aca828285611a06565b600060209050601f831160018114611afd5760008415611aeb578287015190505b611af58582611a77565b865550611b5d565b601f198416611b0b866118e7565b60005b82811015611b3357848901518255600182019150602085019450602081019050611b0e565b86831015611b505784890151611b4c601f891682611a59565b8355505b6001600288020188555050505b505050505050565b7f4e487b7100000000000000000000000000000000000000000000000000000000600052603260045260246000fd5b7f4e487b7100000000000000000000000000000000000000000000000000000000600052601160045260246000fd5b6000611bce82611498565b91507fffffffffffffffffffffffffffffffffffffffffffffffffffffffffffffffff8203611c0057611bff611b94565b5b600182019050919050565b6000611c1682611498565b9150611c2183611498565b9250828202611c2f81611498565b91508282048414831517611c4657611c45611b94565b5b5092915050565b600082825260208201905092915050565b7f50617920436f727265637420416d6f756e740000000000000000000000000000600082015250565b6000611c94601283611c4d565b9150611c9f82611c5e565b602082019050919050565b60006020820190508181036000830152611cc381611c87565b9050919050565b6000611cd582611498565b9150611ce083611498565b9250828203905081811115611cf857611cf7611b94565b5b92915050565b600081549050611d0d816118b6565b9050919050565b818103611d22575050611dfa565b611d2b82611cfe565b67ffffffffffffffff811115611d4457611d436110b6565b5b611d4e82546118b6565b611d59828285611a06565b6000601f831160018114611d885760008415611d76578287015490505b611d808582611a77565b865550611df3565b601f198416611d96876118e7565b9650611da1866118e7565b60005b82811015611dc957848901548255600182019150600185019450602081019050611da4565b86831015611de65784890154611de2601f891682611a59565b8355505b6001600288020188555050505b5050505050505b565b7f4e487b7100000000000000000000000000000000000000000000000000000000600052603160045260246000fdfea264697066735822122048b11620162055c545da7f3f58f2a7ef6dac10ca1b6990d0ab0ac0531dbd83ea64736f6c63430008140033",
  "linkReferences": {},
  "deployedLinkReferences": {}
}